:020000021000EC
:10B0000000800020D55102001552020017520200A4
:10B010000000000000000000000000000000000030
:10B0200000000000000000000000000019520200B3
:10B0300000000000000000001B5202001D52020030
:10B040001F5202001F520200FDD501001F520200D4
:10B050001F520200000000000DCF0100C5F10100E9
:10B060001F5202001F5202001F5202001F52020014
:10B070001F5202001F5202001F5202001F52020004
:10B080001F520200B1C201001F5202001F520200F3
:10B0900001C301001F520200E15002001F520200D2
:10B0A0001F5202001F5202000000000000000000BA
:10B0B0000000000000000000000000000000000090
:10B0C000054B0648033310B51B1A062B03D9044B56
:10B0D000002B00D0984710BD182100201821002017
:10B0E000000000000648074910B5091A8910CB0F67
:10B0F0005918491003D0044B002B00D0984710BDBD
:10B1000018210020182100200000000010B5074C75
:10B110002378002B09D1FFF7D3FF054B002B02D07A
:10B12000044800E000BF0123237010BD1821002057
:10B130000000000038580200094B10B5002B03D066
:10B140000849094800E000BF08480368002B02D105
:10B15000FFF7C8FF10BD064B002BF9D09847F7E763
:10B16000000000001C21002038580200142100209B
:10B1700000000000164B002B00D1144B9D464022CE
:10B1800092029A1A924600218B460F461348144A9F
:10B19000121A00F067F80F4B002B00D098470E4BA7
:10B1A000002B00D098470020002104000D000D481E
:10B1B000002802D00C4800E000BF00F02DF820006D
:10B1C000290005F0FDFB00F011F8C0460000080062
:10B1D0000080002000000000000000001821002076
:10B1E0005C2900200000000000000000084B10B5A2
:10B1F0000400002B02D0002100E000BF054B1868BE
:10B20000836A002B00D09847200000F033F8C04636
:10B2100000000000685502000E4B70B500251E00AE
:10B220000D4CE41AA410A54204D0AB00F358984783
:10B230000135F8E70AF08AF9084B00251E00084C92
:10B24000E41AA410A54204D0AB00F3589847013586
:10B25000F8E770BD0C2100200C2100200C210020FB
:10B260001021002003008218934202D0197001338C
:10B27000FAE77047FEE7C04690B589B000AF786046
:10B280001F23FB1800221A7054E0304B1A681F234A
:10B29000FB181B78DB00D318BB61BB691B781A0055
:10B2A000012393407B612A4B1B687A6913403AD093
:10B2B0007B69DA43264B1B681A40254B1A60BB6931
:10B2C0001B781322BC18180001F010FE0300237035
:10B2D000BB691B781A00012393401A001D4B1B68A1
:10B2E00013401322BA181278B96909788A40934238
:10B2F00019D11323FB181B78BA695278013A5142CD
:10B300004A41D2B29B1A5A425341DBB2FB60BB693D
:10B310005B68002B07D0BB695B68BA691278F96873
:10B32000C9B2100098471F23FB181A781F23FB1877
:10B3300001321A70084B1B781F22BA1812789A42F1
:10B34000A3D3C046BD4609B090BDC04634210020FD
:10B3500064210020602100203821002080B584B0C5
:10B3600000AF78600A00FB1C1A7001227B689A40CB
:10B370001300FB601E4B180001F0D8F80300BB60FF
:10B38000BB68002B30D11B4B1B68FA68134023D1DC
:10B390007B68180001F0AAFD031E06D0164B1A6840
:10B3A000FB681A43144B1A6006E0FB68DA43124B41
:10B3B0001B681A40104B1A600E4B1A68FB681A4340
:10B3C0000C4B1A600A480D4B1B680022190001F053
:10B3D00073F80300BB6008E0FB68DA43054B1B68A9
:10B3E0001A40044B1A6000E0C046BD4604B080BD60
:10B3F0004021002064210020602100203C21002009
:10B4000080B588B000AFF8607A600B23FB180A1C87
:10B410001A707B68042B01D807235FE001F06AFCF7
:10B4200003001A0001235340DBB2002B08D001F0C7
:10B430001FFC0300FB61FB69002B01D0FB694DE0A1
:10B44000284BFA681A60284B0B22BA1812781A7027
:10B45000264B7A681A60264B00221A60254B002280
:10B460001A602BE00B23FB181B78DB00FA68D3185B
:10B47000BB611423FB1803221A701423FB1800224B
:10B480005A701423FB1800229A701423FB18002210
:10B49000DA70BB699A781423FB185A70BB691B7861
:10B4A0001800154A1423FB18190001F031FC0300A1
:10B4B000FB61FB69002B01D0FB690FE00B23FB183C
:10B4C0001B780B22BA18591E1170002BCAD10B4AD7
:10B4D0000B4B0021180000F09FFF03001800BD4631
:10B4E00008B080BD34210020382100203C210020FC
:10B4F00060210020642100205DB3010079B20100C9
:10B500006C55020080B582B000AF00237B600CE078
:10B510000B4B1A687B68DB00D3181B7801211800DD
:10B5200001F05CFC7B6801337B60064B1B781A1EC4
:10B530007B689A42ECD800231800BD4602B080BD5B
:10B54000342100203821002080B586B000AF78601B
:10B550000C23FB1800221A800C23FB1800225A60CF
:10B560000C23FB187A689A600C23FB1804481A0015
:10B57000002100F017F8C046BD4606B080BDC046A9
:10B580000140000080B500AFBFF34F8F034B044A6A
:10B59000DA60BFF34F8FC046FDE7C04600ED00E024
:10B5A0000400FA0580B584B000AFF860B9607A6035
:10B5B000FFF7E8FFC046BD4604B080BD80B582B04D
:10B5C00000AF0200FB1D1A70064BFA1D1278110025
:10B5D0001F220A40012191400A001A60C046BD4660
:10B5E00002B080BD00E100E080B582B000AF020093
:10B5F000FB1D1A700749FB1D1B781A001F231340FF
:10B6000001229A40130080228B50C046BD4602B0F2
:10B6100080BDC04600E100E080B582B000AF02000E
:10B62000FB1D1A700749FB1D1B781A001F231340CE
:10B6300001229A4080235B00CA50C046BD4602B03A
:10B6400080BDC04600E100E080B582B000AF0200DE
:10B65000FB1D1A700749FB1D1B781A001F2313409E
:10B6600001229A40C0235B00CA50C046BD4602B0CA
:10B6700080BDC04600E100E0B0B582B000AF02007E
:10B680003960FB1D1A70FB1D1B787F2B32D92F4CA4
:10B69000FB1D1B781A000F231340083B99082B4A07
:10B6A000FB1D1B7818000F230340083B9B08063343
:10B6B0009B00D31804331B68FA1D12781000032274
:10B6C0000240D200FF2090400200D2431A403B6863
:10B6D0009B01FF201840FB1D1B781D0003232B40FE
:10B6E000DB00984003001A438B1D9B00E3180433D2
:10B6F0001A6027E0164CFB1D1B785BB29B081449AF
:10B70000FA1D127852B29208C03292005258F91DB6
:10B710000978080003210140C900FF20884001008A
:10B72000C94311403A689201FF201040FA1D127877
:10B73000150003222A40D200904002000A43C03381
:10B740009B001A51C046BD4602B0B0BD00ED00E0FE
:10B7500000E100E080B582B000AF0200FB1D1A706E
:10B76000FB1D1B787F2B18D9174AFB1D1B7819006E
:10B770000F230B40083B9B0806339B00D318043370
:10B780001A68FB1D1B78190003230B40DB00DA400D
:10B790001300FF2213409B0912E00C4AFB1D1B788B
:10B7A0005BB29B08C0339B009A58FB1D1B781900A5
:10B7B00003230B40DB00DA401300FF2213409B09F8
:10B7C0001800BD4602B080BD00ED00E000E100E0E1
:10B7D00080B582B000AF78607B68032213405A4284
:10B7E0005341DBB21800BD4602B080BD80B584B0C5
:10B7F00000AFEFF305837B607B68DB05DB0DFB604F
:10B80000FB68002B0BD0FB68103BBB60BB68DBB256
:10B810005BB21800FFF79EFF0300DBB200E00423D9
:10B820001800BD4604B080BD80B582B000AF78601E
:10B830000649A123DB007A68CA5003211120FFF7D3
:10B840001BFFC046BD4602B080BDC046001001408F
:10B8500080B582B000AF1749D1239B0080225202ED
:10B86000CA501449C1239B0080225202CA501120A1
:10B87000FFF7EAFE1120FFF7A1FE0E4B01221A602E
:10B880002F237B607B6818000138C046C046C04645
:10B89000C046C046C046C046C046C046C046C04678
:10B8A000C046F1D1044B01221A70C046BD4602B019
:10B8B00080BDC046001001408821002080B582B0C4
:10B8C00000AF1120FFF790FE1F49D2239B0080227A
:10B8D0005202CA501C49C2239B0080225202CA5005
:10B8E000194B01225A602F237B607B6818000138B6
:10B8F000C046C046C046C046C046C046C046C04618
:10B90000C046C046C046C046F1D10F4B01229A60E6
:10B910000E4B00221A602F233B603B681800013851
:10B92000C046C046C046C046C046C046C046C046E7
:10B93000C046C046C046C046F1D1054B00221A7031
:10B94000C046BD4602B080BD0010014074210020F9
:10B950008821002080B500AF024A034BD35818005D
:10B96000BD4680BD001001400405000080B582B0D6
:10B9700000AF786039607A683B68D31A1B021B0AF3
:10B980001800BD4602B080BD80B582B000AF7860BF
:10B990000449A823DB007A68CA50C046BD4602B0FD
:10B9A00080BDC0460010014080B586B000AF786011
:10B9B000284B1B68002B03D1264B7A681A6045E0A0
:10B9C0007B681A68234B1B681B689A4210D8214B6E
:10B9D0001B68204A126811687A6812688A1A1A600D
:10B9E0001C4B1A687B68DA611A4B7A681A602DE082
:10B9F0007B681B68FB60174B1B687B61154B1B68E2
:10BA00003B6109E03B691B68FA68D31AFB603B693C
:10BA10007B613B69DB693B613B69002B04D03B697F
:10BA20001A68FB689A42EDD33B69002B05D03B694D
:10BA30001A68FB68D21A3B691A607B68FA681A6058
:10BA40007B683A69DA617B697A68DA61C046BD462B
:10BA500006B080BD7021002080B586B000AF786050
:10BA6000224B1B687B617B693B6108E03A697B681C
:10BA70009A4208D03B697B613B69DB693B613B696A
:10BA8000002BF3D100E0C0463B69002B29D07A6936
:10BA90003B699A4211D1154B1B68DA69134B1A6046
:10BAA000124B1B68002B08D1114B01229A60114BDD
:10BAB00000221A60104B01221A703B691B68FB6060
:10BAC0003B69DA697B69DA617B69DB693B613B6908
:10BAD000002B07D03B691A68FB68D2183B691A60D3
:10BAE00000E0C046BD4606B080BDC04670210020C3
:10BAF00000100140742100208921002080B500AF92
:10BB00001120FFF789FDC046BD4680BD80B500AF5E
:10BB10001420FFF781FDC046BD4680BD80B584B0CE
:10BB200000AF7860104B1B68002B13D00E4B1A68C7
:10BB30007B6858697B689B69190090470300FB602C
:10BB4000FB68BB60BB68002B0AD0BB681800FFF71E
:10BB5000FBFC05E07B685A697B689B69180090478D
:10BB6000C046BD4604B080BD8421002080B584B0AD
:10BB700000AF2C4B1B68002B50D000237B60FFF7DD
:10BB8000E9FE0200284B1B6819001000FFF7EEFECB
:10BB90000300BB60234B1B68FB601EE0FB681A6858
:10BBA000BB689A421DD8FB681B68BA68D31ABB6091
:10BBB000FB681B687A68D3187B60FB683B60FB6896
:10BBC000DB69FB603B681B7C002B06D03B680022D6
:10BBD0001A743B681800FFF7A1FFFB68002BDDD14A
:10BBE00000E0C046114B1A78114B1B789A420CD1D9
:10BBF0000F4B1B780133DAB20D4B1A700C4B1B78CC
:10BC0000022B02D10A4B00221A70094B1B781A0032
:10BC1000084B92007968D150FFF778FFC046BD46C7
:10BC200004B080BD702100207421002080210020FC
:10BC3000812100207821002080B582B000AF78609B
:10BC4000184B1A78184B1B789A4223D0154B1B7847
:10BC50000133DAB2134B1A70124B1B78022B02D14C
:10BC6000104B00221A700F4B1B781A000F4B9200DA
:10BC7000D2587B681A607B681A680D4B1B68D21813
:10BC80000B4B1A600A4B1B681B021A0A084B1A60FE
:10BC9000012303E07B6800221A6000231800BD46E0
:10BCA00002B080BD80210020812100207821002069
:10BCB0007421002080B586B000AF364B1B683B6115
:10BCC0001723FB18344A12781A704EE0334B1A6867
:10BCD0001723FB181B78DB00D318FB601623FB1817
:10BCE000FA6812781A7039E0FB6859681623FB1855
:10BCF0001A7813005B009B18DB00CB18BB6016237F
:10BD0000FB181A781623FB1801321A70FB689B780F
:10BD10001622BA1812789A4203D11623FB18002271
:10BD20001A70BB681B78022B02D0032B10D014E0D2
:10BD3000BB685B681800FFF78FFE0FE0154B1B68B0
:10BD40007B607B6800221A747B68DA69114B1A6089
:10BD5000104B1B68002BF1D100E0C046FB685B78FC
:10BD60001622BA1812789A42BED11723FB181B78F4
:10BD70001722BA18591E1170002BA7D1054B1A684B
:10BD80003B69D31A5A1E9341DBB21800BD4606B078
:10BD900080BDC04670210020682100206C21002059
:10BDA00080B588B000AFF860B9607A600023FB61AD
:10BDB00038E0204B1B68BB61BB691A68FB689A427C
:10BDC00006D9BB691A68FB68D21ABB691A602DE0F4
:10BDD000BB691B68FA68D31AFB60BB691B68FA6908
:10BDE000D318FB61BB6900221A60124B1B687B6190
:10BDF000BB69DA690F4B1A60BB69DB68002B11D095
:10BE0000BA68FB69D3181B021A0ABB695A60BB697E
:10BE1000DA68BB699A607B681A68BB69DA617B681B
:10BE20007A691A60034B1B68002BC2D1C046BD461D
:10BE300008B080BD7021002080B588B000AF786068
:10BE40005C4B1B687B611F23FB185B4A12781A70DE
:10BE50009BE05A4B1A681F23FB181B78DB00D31892
:10BE60003B6187E07B68002B05D07B68BB61BB69C9
:10BE7000DB697B603CE03B695A683B691B781900D1
:10BE80000B005B005B18DB00D318FB603B691B7881
:10BE90000133DAB23B691A703B691A783B699B78C7
:10BEA0009A4202D13B6900221A70FB685B68BB6151
:10BEB000FB681B78012B5DD1BB691B7C002B00D07C
:10BEC00058E0FB689A68BB695A60FB68DA68BB692E
:10BED0009A60FB681A69BB69DA60FB685A69BB69DA
:10BEE0009A61374B1B78002B02D0BB6900225A6045
:10BEF000BB695A68334B1B68D31A1B021B0A324AB0
:10BF000093420ED8BB695A682E4B1B68190010006B
:10BF1000FFF72CFD0200BB699B68D218BB691A6051
:10BF200018E0284B1A68BB695B6819001000FFF71E
:10BF30001DFD0300BB60BB699A68BB689A4206D9C5
:10BF4000BB699A68BB68D21ABB691A6002E0BB6918
:10BF500000221A60BB6900225A60BB6900229A6005
:10BF6000BB6901221A74BB690022DA61BB6918003F
:10BF7000FFF71AFD7B68002B00D073E73B691A7846
:10BF80003B695B789A4200D06CE71F23FB181B7853
:10BF90001F22BA18591E1170002B00D059E7054B0B
:10BFA0001A687B69D31A5A1E9341DBB21800BD464A
:10BFB00008B080BD70210020682100206C21002085
:10BFC0008921002074210020FEFF7F0090B589B0F8
:10BFD00000AF7860334B1B68002B5CD0314B1B6883
:10BFE0001B68FB61FFF7B6FC0300BB612E4B1B68AF
:10BFF0007B617A69BB6911001800FFF7B7FC030089
:10C0000003333B61294B1B7801225340DBB2002BE9
:10C0100001D0FFF71DFCFA693B69934200D213007F
:10C020007A69D3187B617B691B021B0A7B617B6980
:10C030001800FFF7A9FCFFF78DFC0300FB60BA694D
:10C04000FB6811001800FFF791FC0300DC1CBA69C3
:10C050007B6911001800FFF789FC03009C421CD982
:10C06000FFF778FC03001800FFF78EFC2F23BB605E
:10C07000BB6818000138C046C046C046C046C0462E
:10C08000C046C046C046C046C046C046C046F1D1C4
:10C09000FFF734FD01E0FFF711FCC046BD4609B0D3
:10C0A00090BDC0467021002074210020882100200E
:10C0B00090B587B000AF00237B601E4B1B683B61CF
:10C0C0001D4B1B68FB600B23FC183B001800FFF79F
:10C0D000B3FD030023701723FC18FFF7EBFD0300EB
:10C0E00023700B23FB181B78002B09D03B683A1DEB
:10C0F00039691800FFF754FE1723FB1801221A7044
:10C100007B681800FFF798FE031E03D01723FB1867
:10C1100001221A701723FB181B78002B03D0FB6831
:10C120001800FFF753FF054B00221A70C046BD46AA
:10C1300007B090BD742100207021002089210020CB
:10C1400080B582B000AF78600A00FB1C1A707B6873
:10C15000FA1C12785A70C046BD4602B080BDC04677
:10C1600080B584B000AF786039607B685A780F235F
:10C17000FB1801321A707B689B780F22BA1812786C
:10C180009A4203D10F23FB1800221A707B681B7898
:10C190000F22BA1812789A4201D1002310E03B68AE
:10C1A0000F22BA1812781A707B685A687B685B781D
:10C1B00019000B005B005B18DB00D318BB60BB6889
:10C1C0001800BD4604B080BD80B586B000AFF860F1
:10C1D000B9607A603B601C4B1A68FB68DB00D318BF
:10C1E0001322BA1811001800FFF7BAFF03007B6191
:10C1F0007B69002B01D1042322E07B6901221A70A4
:10C200007B69BA685A60FFF7A5FB02007B699A60F8
:10C210007B697A68DA607B693A681A617B693A6A95
:10C220005A61094B1A68FB68DB00D2181323FB180C
:10C230001B7819001000FFF783FFFFF767FC00234E
:10C240001800BD4606B080BD6C21002080B584B0CA
:10C2500000AF78603960154B1A687B68DB00D31833
:10C260000B22BA1811001800FFF77AFF0300FB60D9
:10C27000FB68002B01D1042314E0FB6802221A7032
:10C28000FB683A685A60094B1A687B68DB00D21871
:10C290000B23FB181B7819001000FFF751FFFFF765
:10C2A00035FC00231800BD4604B080BD6C21002081
:10C2B00080B500AF114AA0235B000021D1500F4A86
:10C2C000A2235B000021D1500C4AA4235B00002173
:10C2D000D1500A4AA6235B000021D150074A80238F
:10C2E0005B000021D150054A82235B000021D15020
:10C2F000FFF73CFCC046BD4680BDC0460010014073
:10C3000080B500AFFFF7D4FEC046BD4680BDC04635
:10C3100080B586B000AFF8607A603B600B23FB18F5
:10C320000A1C1A707B681800FFF752FA03001A0003
:10C3300001235340DBB2002B01D007235AE07B6876
:10C34000002B04D12D4B00221A60072352E0FFF787
:10C35000B5FA2B4B3A681A602A4B03221A70274B06
:10C360007A681A607B6818337B6000237B6121E068
:10C37000224B1A687B69DB00D3183B613B690022C2
:10C380001A703B6900225A703B690B22BA18127866
:10C390009A703B697A685A600B23FB181A7813006D
:10C3A0005B009B18DB001A007B689B187B607B6935
:10C3B00001337B617B69022BDADD134B00221A60AB
:10C3C000124B00221A70124B00221A701420FFF731
:10C3D0003BF903211420FFF74FF91420FFF7EEF883
:10C3E000FB681800FFF720FAFFF7B4FA0200094BC8
:10C3F0001A6000231800BD4606B080BD6C210020E5
:10C40000842100206821002070210020802100204C
:10C41000812100207421002080B586B000AFF86033
:10C420007A600B23FB180A1C1A70154B1B68002B33
:10C4300001D108231FE07B68002B01D107231AE0FC
:10C44000FB68002B01D1072315E0FB681B681B7CF0
:10C45000002B01D008230EE0FB681B687B617B6921
:10C4600000221A747B690B22BA1812785A747B69FD
:10C470007A685A6100231800BD4606B080BDC046E8
:10C480006C21002080B582B000AFFFF7AFF9031E2A
:10C49000012B02D0032B03D005E000237B6005E0D5
:10C4A00001237B6002E002237B60C0467B681800AA
:10C4B000BD4602B080BDC04690B589B002AFF860FD
:10C4C000B9607A60FB687B61174B1B68002B01D158
:10C4D000082324E0FB68002B01D108231FE0BB6880
:10C4E000042B01D807231AE07B695B69002B01D17B
:10C4F000082314E07B695B7C012B01D1BB6800E061
:10C5000000233B61FFF7BEFF04003869BA68796910
:10C510007B68009303002000FFF756FE030018001D
:10C52000BD4607B090BDC0466C21002080B584B0E8
:10C5300000AF78607B68FB600F4B1B68002B01D15C
:10C54000082314E07B68002B03D0FB685B69002B99
:10C5500001D108230BE0FB6800221A74FFF792FF59
:10C560000200FB6819001000FFF770FE03001800BE
:10C57000BD4604B080BDC0466C21002080B582B0AD
:10C5800000AF78607B68002B01D1032304E0044BEB
:10C590005A6D7B681A6000231800BD4602B080BD4A
:10C5A0008C21002080B582B000AF0200FB1D1A7004
:10C5B000064BFA1D127811001F220A4001219140FA
:10C5C0000A001A60C046BD4602B080BD00E100E02E
:10C5D00080B582B000AF0200FB1D1A700749FB1D39
:10C5E0001B781A001F23134001229A40C0235B00CE
:10C5F000CA50C046BD4602B080BDC04600E100E062
:10C60000B0B582B000AF02003960FB1D1A70FB1D8F
:10C610001B787F2B32D92F4CFB1D1B781A000F2360
:10C620001340083B99082B4AFB1D1B7818000F2369
:10C630000340083B9B0806339B00D31804331B6858
:10C64000FA1D1278100003220240D200FF20904011
:10C650000200D2431A403B689B01FF201840FB1D9B
:10C660001B781D0003232B40DB00984003001A4376
:10C670008B1D9B00E31804331A6027E0164CFB1D4A
:10C680001B785BB29B081449FA1D127852B29208CB
:10C69000C03292005258F91D097808000321014068
:10C6A000C900FF2088400100C94311403A68920147
:10C6B000FF201040FA1D1278150003222A40D200F4
:10C6C000904002000A43C0339B001A51C046BD4649
:10C6D00002B0B0BD00ED00E000E100E080B582B046
:10C6E00000AF0200FB1D1A70BB1D0A1C1A70BB1D97
:10C6F0001A78FB1D1B785BB211001800FFF780FF52
:10C70000FB1D1B785BB21800FFF762FFFB1D1B7857
:10C710005BB21800FFF746FFC046BD4602B080BDC1
:10C7200080B582B000AF0200BB1D1A80BB1D1B8804
:10C73000180000F01DF803001B68013B5A425341EA
:10C74000DBB21800BD4602B080BDC04680B582B0E5
:10C7500000AF0200BB1D1A80BB1D1B88180000F033
:10C7600007F8030000221A60C046BD4602B080BD33
:10C7700080B582B000AF0200BB1D1A80BB1D1B88B4
:10C78000034A944663441800BD4602B080BDC046CB
:10C790000060004080B582B000AF78600449C123DA
:10C7A0009B007A68CA50C046BD4602B080BDC046F4
:10C7B0000060004080B582B000AF7860044AC123B9
:10C7C0009B00D3587A6813401800BD4602B080BD64
:10C7D0000060004080B582B000AF78600849084A28
:10C7E0007B684533FF339B009B5801221A437B68CB
:10C7F0004533FF339B005A50C046BD4602B080BD52
:10C800000060004090B585B000AFF860B960FB1DD6
:10C810001A701649154AFB684533FF339B009B5835
:10C82000134A1A40FB684533FF339B005A500F48A8
:10C830000E4AFB684533FF339B009A58BB681902C8
:10C84000F8235B011940FB1D1B781B041C00C0234F
:10C850009B0223400B431A43FB684533FF339B0085
:10C860001A50C046BD4605B090BDC04600600040AD
:10C87000FFE0FCFF80B582B000AF7860064A7B68BD
:10C880004533FF339B009A58F8235B0113401B0A82
:10C890001800BD4602B080BD0060004080B582B087
:10C8A00000AF7860074A7B684533FF339B009A5896
:10C8B000C0239B0213401B0CDBB21800BD4602B024
:10C8C00080BDC0460060004090B583B000AF786086
:10C8D0000C0010001900FB1C221C1A70BB1C021C4F
:10C8E0001A707B1C0A1C1A70A023DB05FA1C117835
:10C8F000BA1C1278520011437A1C1278920011432C
:10C900001822BA181278120211431C22BA1812788F
:10C91000120411437A68C132FF329200D150C046EE
:10C92000BD4603B090BDC04680B584B002AF78600C
:10C930000A00FB1C1A70FB1C1A787868002301930C
:10C9400000230093130000220021FFF7BDFFC04623
:10C95000BD4602B080BDC04680B584B000AF7860EF
:10C96000A023DB057A68C132FF329200D35802223D
:10C970009343FB60A023DB057A68C132FF3292004B
:10C98000F968D150C046BD4604B080BD80B582B0C4
:10C9900000AF78600A00FB1C1A70A023DB05A02200
:10C9A000D2057968C131FF3189008A580E4911409A
:10C9B0007A68C132FF329200D150A023DB05A02259
:10C9C000D2057968C131FF3189008A58F91C09788C
:10C9D000090411437A68C132FF329200D150C04637
:10C9E000BD4602B080BDC046FFFFFCFF80B582B0EF
:10C9F00000AF7860A023DA05A223DB00D2587B6861
:10CA0000DA401300012213401800BD4602B080BD79
:10CA100080B500AFA023DA05A223DB00D3581800AD
:10CA2000BD4680BD80B582B000AF7860A023DB0535
:10CA30007A68C132FF329200D258C0239B02134061
:10CA40001B0CDBB21800BD4602B080BD80B582B0C1
:10CA500000AF78600E4A20217B68D3185B181B78E2
:10CA60005BB2002B0ADB0A4A20217B68D3185B18D3
:10CA70001B785BB2032B01DC012300E000231A1CAE
:10CA800001231340DBB21800BD4602B080BDC04692
:10CA9000E421002080B582B000AF7860084A2021F0
:10CAA0007B68D3185B181B7801225BB2032B01DC77
:10CAB00000231A1CD3B21800BD4602B080BDC04688
:10CAC000E421002080B582B000AF7860064A2021C2
:10CAD0007B68D3185B181B78DB43DBB2DB09DBB266
:10CAE0001800BD4602B080BDE421002080B584B0AE
:10CAF00000AFF860B9607A601A00FB1C1A70BB685E
:10CB0000D8B2104A2021FB68D3185B18021C1A7097
:10CB10000C4BBA6892007968D150FB1C1B7801223B
:10CB20005340DBB2002B09D0BB68043BFA68D0B29B
:10CB3000044A4021D3185B18021C1A70C046BD4637
:10CB400004B080BDE421002080B582B000AF7860E1
:10CB5000054A20217B68D3185B18FF221A70C04653
:10CB6000BD4602B080BDC046E421002080B582B041
:10CB700000AF7860054A20217B68D3185B181B78CA
:10CB80005BB21800BD4602B080BDC046E421002063
:10CB900080B582B000AF7860034B7A689200D358BA
:10CBA0001800BD4602B080BDE421002080B588B0E9
:10CBB00000AFF860B960FB1D1A701F23FB18FF223D
:10CBC0001A70FB1D1B78002B01D0002300E004230A
:10CBD0007B61FB1D1B78002B01D0042300E00823A0
:10CBE0003B617B69BB6114E0104BBA699200D3587A
:10CBF00001330BD1FB1D1B78BA68B969F868FFF7E0
:10CC000075FF1F23FB18BA691A7006E0BB69013370
:10CC1000BB61BA693B699A42E6D31F23FB181B78B4
:10CC20005BB21800BD4608B080BDC046E4210020BC
:10CC300080B582B000AF0200FB1D1A70FB1D1A7890
:10CC40000A4B920001214942D150FB1D1B78032B56
:10CC500008D9FB1D1B78043B044A4021D3185B18FC
:10CC6000FF221A70C046BD4602B080BDE4210020FC
:10CC700080B582B000AF1E4B44229B5C002B01D0DC
:10CC8000082331E0FB1D00221A7009E0FB1D1B7810
:10CC90001800FFF759FFFB1D1A78FB1D01321A70AF
:10CCA000FB1D1B781F2BF1D9FB1D00221A7009E018
:10CCB000FB1D1B781800FFF7BBFFFB1D1A78FB1D3F
:10CCC00001321A70FB1D1B78072BF1D903210620B6
:10CCD000FFF704FD80231B061800FFF75BFD044BE4
:10CCE00044220121995400231800BD4602B080BDA2
:10CCF000E421002080B500AF044B44229B5C5A1E07
:10CD00009341DBB21800BD4680BDC046E42100203F
:10CD100090B587B000AFF860B9607A6000237B619E
:10CD2000FB681800FFF7CEFE031E02D008237B61CC
:10CD30004DE0BB68DA781323FC187968FB681800AB
:10CD4000FFF734FF030023701323FB181B785BB23B
:10CD500001333AD0BB689B78002B04D0FB681800E5
:10CD6000FFF7FAFD06E0BB685A78FB68110018006F
:10CD7000FFF7DAFDBB68DB78002B0AD01323FB1822
:10CD800000201856BB681A78FB681900FFF73AFDB7
:10CD90001DE01323FB181B785BB2043B1322BA1867
:10CDA000127852B2043A0C4940208A1812181178AD
:10CDB000BA6812789201D2B20A43D0B2064A402130
:10CDC000D3185B18021C1A7001E004237B617B6995
:10CDD0001800BD4607B090BDE421002080B586B0A4
:10CDE00000AF78600A00FB1C1A707B681800FFF720
:10CDF00051FE031E3DD07B681800FFF7B7FE03000D
:10CE0000043B394A4021D3185B181A781623FB18C3
:10CE10001A701523FB181622BA18127892091A7084
:10CE20001523FB181B78032B0FD1FFF7F1FD010031
:10CE300001227B689A4013000B4001D0032200E0DE
:10CE400002221723FB181A700AE01523FB181B781F
:10CE5000012B01D1022200E003221723FB181A70D4
:10CE60001723FB181A787B6811001800FFF78EFD56
:10CE700035E07B681800FFF7E9FD031E2FD07B68C3
:10CE80001800FFF773FE03003B613B699BB2403320
:10CE90009AB20E23FB1892001A803B691800FFF724
:10CEA00099FC0E23FB181B881800FFF74FFCFB1C96
:10CEB0001B78002B13D07B681800FFF757FE030088
:10CEC0001800FFF765FE0300BB60BB68002B06D0AF
:10CED00001223B699A4013001800FFF75BFCC04633
:10CEE000BD4606B080BDC046E421002080B582B0BA
:10CEF00000AF78607B681800FFF778FD03005A1ECA
:10CF00009341DBB21800BD4602B080BD90B593B02E
:10CF100000AF00237B6400233B643A23FB1880228C
:10CF200052001A8001237B630023FB6324E03A2331
:10CF3000FB181B881800FFF7F3FB031E0FD07B6B59
:10CF40001800FFF737FC031E09D03A23FB181B8893
:10CF50001800FFF7FBFB7A6C7B6B13437B647B6BE6
:10CF60005B007B633A23FB183A22BA18128804321A
:10CF70001A80FB6B0133FB63FB6B032BD7D9BE23FA
:10CF80005B001800FFF7CCFB031E0DD0BE235B0037
:10CF90001800FFF7DBFB7B6C8022120613437B64D7
:10CFA000FFF736FD03003B647B6C0F2213402CD04F
:10CFB00001237B630023FB6324E07B6B7A6C1340CB
:10CFC0001AD0FB6B1800FFF755FC03007B6223238C
:10CFD000FC18FB6B1800FFF761FC03002370FB6B70
:10CFE0001800FFF7D5FD0300FB612323FB18197818
:10CFF0007A6AFB69100098477B6B5B007B63FB6B75
:10D000000133FB63FB6B032BD7D97B6C002B00DB5D
:10D01000BDE03323FB1800221A700023FB620123BA
:10D020005B42BB623323FB1800221A700023FB63B0
:10D030008DE0594A4021FB6BD3185B181A781B23EB
:10D04000FB181A701B23FB181B78C02293437B61CB
:10D05000514A4021FB6BD3185B181B785BB201333C
:10D0600000D171E0BA6A7B69DA40130001221340F3
:10D0700000D169E01323FB181B22BA181278920919
:10D080001A707B691800FFF771FD03001800FFF7A5
:10D090007FFD0300FB60FB68002B04D11323FB180A
:10D0A0001B78032B50D101227B699A4013007B63CC
:10D0B0001323FB181B78032B03D1FA6A7B6B1343F2
:10D0C000FB620B23FC187B691800FFF7ABFC030025
:10D0D00023707B6B3A6C134004D00B23FB181B7836
:10D0E000022B08D07B6B3A6C13402DD10B23FB181D
:10D0F0001B78032B28D11323FB181B78032B19D182
:10D100000B23FB181B78022B01D1032200E0022223
:10D110000A23FB181A700A23FB181A787B6911007E
:10D120001800FFF733FC3323FB183322BA181278A8
:10D1300001321A70FB68002B06D01323FB181978F4
:10D140007A69FB6810009847FB6B0133FB63FB6B4C
:10D15000032B00D86DE73323FB181B78002B10D06E
:10D16000FFF756FC03007B607A683B6C9A4204D15F
:10D170003323FB1800221A7003E07B683B64FB6AD0
:10D18000BB623323FB181B78002B00D04AE7C04654
:10D19000BD4613B090BDC046E421002080B582B0EA
:10D1A00000AF78600A00BB1C1A80BB1C1B887A6821
:10D1B000D31800221A60C046BD4602B080BDC046EA
:10D1C00080B582B000AF78600A00BB1C1A80BB1C1F
:10D1D0001B887A68D3181B685A1E9341DBB218006B
:10D1E000BD4602B080BDC04680B582B000AF786059
:10D1F00039607A68C1239B00D3583A6813405A1E9D
:10D200009341DBB21800BD4602B080BD80B582B04C
:10D2100000AF786039607A68C2239B003968D150CA
:10D22000C046BD4602B080BD80B584B000AF786016
:10D230007A689023DB00D358FB607A689023DB0088
:10D24000F968D150FB681800BD4604B080BDC046E7
:10D2500080B582B000AF78607A68A323DB00D35832
:10D26000DBB21800BD4602B080BDC04680B582B0BA
:10D2700000AF78600A00FB1C1A70FB1C1A787B68F0
:10D2800002495A50C046BD4602B080BD1C05000090
:10D2900080B582B000AF78600A00FB1C1A70FB1CDE
:10D2A0001B787A68D31801221A60C046BD4602B0C6
:10D2B00080BDC04680B582B000AF8E235B00104AAF
:10D2C00019001000FFF76AFF0E4B9B680D4A928A07
:10D2D00092B29A18FB1D12781A700A4B9B8A9BB265
:10D2E00001339AB2074B9A82FB1D1B78044A19003E
:10D2F0001000FFF7BBFFC046BD4602B080BDC04670
:10D30000002000402C220020B0B500AF154BDB7D83
:10D31000002B0BD184235B00134A19001000FFF788
:10D320003DFF114B1800FFF793FF19E084235B00CA
:10D330000D4A19001000FFF731FF0A4BDB68094A5C
:10D34000527ED2B29C18084B1800FFF781FF0300F1
:10D350002370044B5B7EDBB20133DAB2014B5A76A9
:10D36000BD46B0BD2C2200200020004080B586B014
:10D3700000AF02003960FB1D1A700823FB18012260
:10D380001A700823FB18FA1D12781A720823FB186A
:10D390003A685A60054B5A68044B19680823FB1811
:10D3A00018009047C046BD4606B080BD2C22002024
:10D3B00080B586B000AF0200FB1D1A700823FB1871
:10D3C00000221A700823FB18FA1D12781A720A4BF1
:10D3D0009A680823FB185A60074B00229A75064B7F
:10D3E0005A68054B19680823FB1818009047C04677
:10D3F000BD4606B080BDC0462C22002080B586B058
:10D4000000AF80239B007B4A19001000FFF7ECFE61
:10D41000031E42D092235B00764A19001000FFF7EA
:10D42000CFFE031E39D092235B00724A1900100010
:10D43000FFF7B4FE81239B006E4A19001000FFF72E
:10D44000E5FE6D4B9B7E01225340DBB2002B04D0E6
:10D45000684B04211800FFF71BFF3B0002221A70E3
:10D46000644B1800FFF7E0FE02003B00DA60624BFD
:10D47000DA7D3B001A72604BDA683B005A605E4B03
:10D480000022DA755C4B00221A765B4B5A685A4BC5
:10D4900019683B00180090475AE0564B04211800C9
:10D4A000FFF7A2FE031E53D084235B00514A1900EC
:10D4B0001000FFF785FE031E4AD0FFF725FF4E4BF5
:10D4C000DA7D4D4B5B7EDBB29A4241D14A4B1B7EEB
:10D4D000002B1ED0484BDB687B611323FB18464AA8
:10D4E000527E1A70444B1A7E434BDA75424B1A69CE
:10D4F000414BDA60404B00221A763F4B00225A76AD
:10D500007A691323FB181B7811001800FFF72EFF10
:10D510001EE0394B9B7E01225340DBB2002B04D02E
:10D52000344B04211800FFF7B3FE81239B00314ADE
:10D5300019001000FFF76AFE2F4B0022DA752E4B00
:10D540005B7EDAB22C4BDB6819001000FFF70EFF90
:10D550008E235B00274A19001000FFF731FE031EDF
:10D560001AD0254B9B8A9AB2234B9B7D9BB29A4241
:10D5700002D2FFF79FFE0FE08E235B001D4A1900C9
:10D580001000FFF70BFE1C4B9B7D002B04D01A4BA9
:10D590009B7D1800FFF70CFFA2235B00154A1900C2
:10D5A0001000FFF70DFE031E1FD0A2235B00114ADF
:10D5B00019001000FFF7F2FD0F4B9B7E002B04D0EB
:10D5C0000C4B00211800FFF763FE0B4BDB7D002B9B
:10D5D0000BD0094B0022DA75074B5B7EDAB2064BA3
:10D5E000DB6819001000FFF7C1FEC046BD4606B05B
:10D5F00080BDC046002000402C22002080B500AF36
:10D60000FFF7FCFEC046BD4680BDC04680B500AFFA
:10D6100080235B051B699BB21800BD4680BDC046D8
:10D6200080B582B000AF0B4B5B697B607B680133D8
:10D6300008D0FFF7EBFF03001900786807F0F0FD52
:10D64000030002E080235B055B691800BD4602B061
:10D6500080BDC0460010001080B582B000AF786079
:10D660007B68032213405A425341DBB21800BD4687
:10D6700002B080BD29DF7047C046180028DF704720
:10D68000C046180080B500AF0D4B1B78180000F0A5
:10D690006DFA0B4B5B78013BDAB2094B5A70084BC1
:10D6A0001B780133DAB2064B1A70054B1B780A2B34
:10D6B00002D1034B00221A70C046BD4680BDC04651
:10D6C0004822002080B500AF0A4B1B781A001300D7
:10D6D0009B009B189B00074A9B18043319000020ED
:10D6E00000F028FBFFF7CEFF002000F05FF9C046F6
:10D6F000BD4680BD4822002080B500AF054B00220A
:10D700001A60054B00221A6000F006FBC046BD46B9
:10D7100080BDC0462C2300204823002080B582B065
:10D7200000AF78600A4B1B781A0013009B009B180F
:10D730009B00074A9B181A1D7B681100180000F017
:10D74000F9FA042000F032F9C046BD4602B080BDAF
:10D750004822002080B582B000AF78607B68002B43
:10D760000DD0112B06D1084B1B6808221A43064B1B
:10D770001A6005E07B681800FFF7D0FF00E0C046A4
:10D78000C046BD4602B080BD5023002080B584B0A5
:10D7900000AFF860B9607A607A68B968FB68180011
:10D7A000FFF768FF03001800FFF7D4FFC046BD462F
:10D7B00004B080BDB0B582B000AF274B1B781A0013
:10D7C00013009B009B189B00234A9B1804337B602B
:10D7D0007B685C88FFF71AFF03009C4224D97B68B2
:10D7E0005B881C00FFF712FF0300E31A3B607B68B5
:10D7F000DB687A6892889A183B68D3181D007B68AA
:10D800001A693B68D418FFF701FF03009B089BB21D
:10D810001A0021002800FFF7B9FFFFF7F7FE030009
:10D820001A000E4B1A6013E07B68DB687A689288F6
:10D830009B1818007B6819697B685B889B089BB202
:10D840001A00FFF7A3FF7B685B881A00034B1A607E
:10D85000C046BD4602B0B0BD48220020482300208B
:10D8600080B500AFFFF7A6FFC046BD4680BDC046ED
:10D8700090B585B000AF2B4B1B68012293431A0073
:10D88000284B1A60284B1B781A0013009B009B182A
:10D890009B00254A9B180433FB60FB68DB68BB6078
:10D8A000FFF7B4FE03001900B86807F0B9FC0300E5
:10D8B0007B601E4B7A681A60FB685B881A00BB6845
:10D8C000D3185C1EFFF7A2FE03001900200007F02A
:10D8D000A7FC03003B607A683B689A4206D1114B73
:10D8E0001B6802221A430F4B1A6006E00D4B1B689F
:10D8F000022293431A000B4B1A600D4B1B68002B3E
:10D9000008D1084B1B680222134003D1022000F00B
:10D910001BF902E0002000F017F9C046BD4605B033
:10D9200090BDC0465023002048220020282300201C
:10D930002023002080B582B000AF78607B6818009B
:10D94000FFF79CFE03001800FFF704FFC046BD462A
:10D9500002B080BD80B500AF034B1B681800FFF715
:10D96000E9FFC046BD4680BD2823002080B500AF3A
:10D970000D4B1B78012B0BD002DC002B05D010E0E7
:10D98000022B08D0032B09D00BE0FFF7B5FE08E00F
:10D99000FFF766FF05E0FFF76BFF02E0FFF7DAFF36
:10D9A000C046C046BD4680BD1C23002080B582B065
:10D9B00000AF0200FB1D1A70044BFA1D12781A709A
:10D9C000FFF7D4FFC046BD4602B080BD1C23002037
:10D9D000B0B500AFFFF724FE03005C1EFFF716FE94
:10D9E00003005C43FFF712FE03001900200007F05C
:10D9F00017FC03001800FFF79DFFC046BD46B0BDF1
:10DA0000B0B500AFFFF70CFE03005C1EFFF7FEFD94
:10DA1000030063431C00FFF7F9FD03001A00084BE5
:10DA20001B6853431D00FFF7F1FD03009B089BB2E9
:10DA30001A0029002000FFF7A9FEC046BD46B0BD70
:10DA40002823002080B500AF034B1B681800FFF7A8
:10DA500071FFC046BD4680BD28230020B0B584B00C
:10DA600000AF1F4B1B781A0013009B009B189B00F4
:10DA70001B4A9B180433FB60FB68DB68BB60FB68D8
:10DA80005B881A00BB68D318FA6892889C18FFF765
:10DA9000BDFD03001900200007F048FC0B007B606F
:10DAA000FB685B881A00BB68D318FA6892889B18D9
:10DAB0001D00FFF7B5FD03005C1EFFF7A7FD030087
:10DAC00063431A007B68D3181900064B1B681A00C1
:10DAD0002800FFF75BFEC046BD4604B0B0BDC0469F
:10DAE0004822002024230020B0B500AF0C4B1B6857
:10DAF0005C1EFFF78BFD030063431D00FFF790FDE5
:10DB000003005C1EFFF782FD030063431900054B11
:10DB10001B681A002800FFF739FEC046BD46B0BD9D
:10DB2000282300202023002080B500AF044B1B7861
:10DB30001A00044B9200D3589847C046BD4680BD9A
:10DB40001D2300207055020080B582B000AF020096
:10DB5000FB1D1A70044BFA1D12781A70FFF7E4FFD0
:10DB6000C046BD4602B080BD1D23002080B582B0F6
:10DB700000AF78601F497A6813009B009B189B00D8
:10DB8000CB18043300221A701A497A6813009B00DC
:10DB90009B189B00CB18063300221A8015497A681F
:10DBA00013009B009B189B00CB180C3302221A60B9
:10DBB00010497A6813009B009B189B00CB18103308
:10DBC00000221A600B497A6813009B009B189B0087
:10DBD000CB18143300221A6006497A6813009B00A0
:10DBE0009B189B00CB18083300221A80C046BD4604
:10DBF00002B080BD4822002080B582B000AF0B4B40
:10DC000000221A70094B00225A7000237B6006E044
:10DC10007B681800FFF7AAFF7B6801337B607B6895
:10DC2000092BF5D9C046BD4602B080BD4822002070
:10DC300080B586B000AFB9607A6019000F23FB1879
:10DC4000021C1A700C23FB180A1C1A80304B5B78DC
:10DC50000A2B56D02E4B1B781A002D4B5B78D3180D
:10DC60003B613B69092B02D93B690A3B3B6128496F
:10DC70003A6913009B009B189B00CB1804330F22BA
:10DC8000BA1812781A7022493A6913009B009B183F
:10DC90009B00CB1814337A681A601D493A69082032
:10DCA00013009B009B189B00CB181B18BA68043309
:10DCB00003CA03C316493A6913009B009B189B00D3
:10DCC000CB1806330C22BA1812881A8010493A6908
:10DCD00013009B009B189B00CB1808332022BA1816
:10DCE00012881A800A4B5B780133DAB2084B5A70FB
:10DCF000084B1B78002B01D100F0E0FB00237B6177
:10DD000001E004237B617B691800BD4606B080BD3D
:10DD1000482200201C23002080B500AF044B5B7814
:10DD2000002B01D000F0CAFBC046BD4680BDC046F6
:10DD300048220020F0B587B002AF786039600F2329
:10DD4000FB183A6812781A703B689A680D491300FC
:10DD50005B009B189B005B58BB603B680833180056
:10DD60003B681E69084B1B687D680F22BA18117842
:10DD70000093BC6833002A00A047C046BD4605B0EA
:10DD8000F0BDC046302300204C23002090B585B064
:10DD900000AF1C4B1B781A0013009B009B189B00C4
:10DDA000184A9B180433BB60BB68DB687B60BB68A8
:10DDB0005B881A007B68D318BA6892889B185C1E2F
:10DDC000FFF724FC03001900200007F029FA0300E4
:10DDD0003B600D4B1B68002B09D00C4B1A683B684D
:10DDE0009A4204D10F23FB1801221A7003E00F237B
:10DDF000FB1800221A700F23FB181B781800BD4671
:10DE000005B090BD482200202423002028230020B4
:10DE100080B582B000AF0C4B1B781A0013009B003A
:10DE20009B189B00084A9B1804337B607B681B7817
:10DE3000042B02D0FFF746FC01E000F02FFBC046A8
:10DE4000BD4602B080BDC0464822002080B500AF6C
:10DE5000FFF7DEFFC046BD4680BDC04690B585B029
:10DE600000AF1F4B1B781A0013009B009B189B00F0
:10DE70001B4A9B180433BB60BB68DB687B60BB68D4
:10DE80005B881A007B68D318BA6892889B185C1E5E
:10DE9000FFF7BCFB03001900200007F0C1F90300E5
:10DEA0003B60104B1A683B689A4208D30D4B1A68C6
:10DEB0003B689A4208D10C4B1B68002B04D10F23FE
:10DEC000FB1801221A7003E00F23FB1800221A70BE
:10DED0000F23FB181B781800BD4605B090BDC04647
:10DEE00048220020282300202423002080B500AFF2
:10DEF000074B1B68082293431A00054B1A60054B19
:10DF00001B781800FFF720FEC046BD4680BDC04606
:10DF1000502300201D23002080B500AF184B1B6844
:10DF20000822134026D1FFF731FF031E0CD0154BFA
:10DF300000221A60124B1B6801221A43104B1A6010
:10DF40000020FFF701FE17E0FFF788FF031E06D051
:10DF50000C4B00221A600220FFF7F6FD0CE00A4B82
:10DF60001B68002B03D00320FFF7EEFD04E0FFF752
:10DF70006DFF01E0FFF7BAFFC046BD4680BDC04659
:10DF800050230020202300202423002080B500AF50
:10DF9000064B1B680822134002D1FFF757FF01E030
:10DFA000FFF7A4FFC046BD4680BDC04650230020F9
:10DFB00080B500AF1C4B1B68082213402ED11B4BB1
:10DFC0001B685A1C194B1A60194B1B68002B03D095
:10DFD0000420FFF7B9FD23E0FFF740FF031E03D045
:10DFE0000220FFF7B1FD1BE0124B1B68002B12D083
:10DFF0000D4B1B680122134009D10B4B1B680122FA
:10E000001A43094B1A600020FFF79EFD08E0032029
:10E01000FFF79AFD04E0FFF719FF01E0FFF766FF45
:10E02000C046BD4680BDC0465023002028230020A6
:10E03000202300202423002080B500AF0C4B1B6858
:10E04000082213400ED10A4B1B680222134005D050
:10E05000074B1B6801221A43054B1A600220FFF789
:10E0600073FD01E0FFF742FFC046BD4680BDC046DC
:10E070005023002080B500AF064B1B6808221340D8
:10E0800003D10120FFF760FD01E0FFF72FFFC0463D
:10E09000BD4680BD5023002080B500AF044B1B78E7
:10E0A0001A00044B9200D3589847C046BD4680BD25
:10E0B0001D2300208455020080B500AF074B1B686C
:10E0C000082293431A00054B1A60054B1B78180071
:10E0D000FFF76CFCC046BD4680BDC0465023002003
:10E0E0001C23002080B500AF104B1B680822134092
:10E0F00016D10F4B1B685A1C0D4B1A60FFF7AEFE72
:10E1000003001A0001235340DBB2002B02D0FFF7BB
:10E110007FFE07E0074B1B781800FFF747FC01E084
:10E12000FFF7CAFFC046BD4680BDC0465023002051
:10E13000282300201C23002080B582B000AF144BA0
:10E140001B68082213401DD1124B1B781A001300C4
:10E150009B009B189B000F4A9B1804337B607B68D5
:10E160005A880D4B1B689BB2D31A9AB27B685A80AF
:10E170007B685B88002B02D1FFF7A4FA04E0FFF76D
:10E1800019FB01E0FFF798FFC046BD4602B080BD15
:10E1900050230020482200204823002080B500AFF3
:10E1A0000A4B1B78022B0AD0032B05D0012B00D081
:10E1B00008E0FFF7C1FF05E0FFF794FF02E0FFF77B
:10E1C0006BFFC046C046BD4680BDC0461C23002034
:10E1D00080B500AF0F4B1B685A1C0E4B1A600D4BDD
:10E1E0001B68032B0FD00C4B1B78022B05D00A4B5E
:10E1F0001B781800FFF7DAFB08E0084B1B781800C3
:10E20000FFF7A2FC02E00D20FFF788FAC046BD46EA
:10E2100080BDC0462C2300201C2300201D2300208D
:10E2200080B582B000AF78600F4B1B78002B17D001
:10E230000D4B1B78042B13D07B68022B02D0032BD1
:10E2400003D00DE0FFF7AAFF0AE0084B1B68082285
:10E25000134002D1FFF7BCFF01E0FFF79FFFC0466C
:10E26000C046BD4602B080BD1C23002050230020C4
:10E2700090B585B000AF0200BB1D1A803B1D0A1C83
:10E280001A80FFF7C3F903001A003B1D1B88110019
:10E29000180006F0C5FF03009BB2FB60FFF7B6F95C
:10E2A00003001A00BB1D1B881100180006F0B8FF00
:10E2B00003009BB2BB60FA68BB689A4208D13B1D61
:10E2C0001A88BB1D1B88D31A9A080D4B1A6013E0DD
:10E2D000FFF79CF903001C00FFF798F903001A00F0
:10E2E000BB1D1B881100180007F020F80B009BB223
:10E2F000E31A9A08024B1A60C046BD4605B090BDAD
:10E300002423002090B589B000AF5F4B1B781A0022
:10E3100013009B009B189B005B4A9B180433FB6116
:10E32000FB69DB68BB61FB699A681623F9185748DB
:10E3300013005B009B189B00C31808331B880B80DD
:10E34000FB699A681423F918504813005B009B1866
:10E350009B00C3180A331B880B80FB699A684B49E2
:10E3600013005B009B189B00CB1804331B683B61B8
:10E37000FFF74CF903001A00BB691100180006F002
:10E38000D5FF0B001A000F23FB1851424A411A70A7
:10E390001623FB181B881422BA18128853431A003C
:10E3A0003B69D318BB60FB695B881A00BB69D31853
:10E3B000FA6992889B187B60354B00221A600F2304
:10E3C000FB181B78002B06D0FB695C88FFF71EF951
:10E3D00003009C4210D00F23FB181B78002B07D0A2
:10E3E0007A68BB689A4203D1FB699B88002B03D0F3
:10E3F000FB699B68032B0ED1FFF708F90300190096
:10E40000B86906F00DFF03001A00224B1A600320C2
:10E41000FFF7CCFA34E0FB699B881A00BB69D4187B
:10E42000FFF7F4F803001900200006F07FFF0B004F
:10E430009A08194B1A60FFF7E9F803001A007B6885
:10E440001100180006F072FF0B001A00FB1C51426D
:10E450004A411A707A68BB689A420ED0FB1C1B783E
:10E4600001225340DBB2002B07D07B689BB2BA6815
:10E4700092B211001800FFF7FBFE0220FFF796FA98
:10E48000C046BD4609B090BD482200203023002080
:10E4900024230020282300202023002080B500AF63
:10E4A0000120FFF783FAC046BD4680BD80B500AFAE
:10E4B000FFF728FFC046BD4680BDC04680B582B08C
:10E4C00000AF134B1B781A0013009B009B189B0096
:10E4D0000F4A9B1804337B607B685B881A000D4BE6
:10E4E0001A607B681B78032B07D0042B08D0012B04
:10E4F00000D008E0FFF7D2FF05E0FFF703FF02E0DE
:10E50000FFF7D4FFC046C046BD4602B080BDC0463E
:10E51000482200204C23002090B583B000AFFFF7C5
:10E520006BFB264B00221A80FFF77AF80300DC1EF3
:10E53000FFF76CF8030063431A00214B1A60214B6C
:10E5400000221A6000237B601EE01F497A681300D6
:10E550005B009B189B0000225A501B497A681300ED
:10E560005B009B189B00CB18083300221A801649C9
:10E570007A6813005B009B189B00CB180A330022BB
:10E580001A807B6801337B607B68012BDDD90F4BE0
:10E5900000221A700E4B00221A600E4B00221A60E5
:10E5A0000D4B00221A600B4B1B6804221A43094BC7
:10E5B0001A6000231800BD4603B090BD142300204C
:10E5C0001823002028230020302300201C230020B3
:10E5D0002C2300205023002048230020B0B584B015
:10E5E00000AF786039605A4B1B680422134001D198
:10E5F0000823A9E07B68002B01D10E23A4E03B682F
:10E60000002B01D10E239FE07B681B68002B01D1FA
:10E610000E2399E07B689C88FEF7F8FF03009C427C
:10E6200003D87B689B880F2B01D807238CE07B687D
:10E63000DB88002B13D07B68DB881A007B689B8803
:10E6400053431A00434B1B68D418FEF7E9FF03003D
:10E650005D1EFEF7DBFF03006B439C4201D90723DD
:10E6600072E07B689B88032213409BB2002B01D091
:10E67000072369E0384B1B88022B01D1042363E098
:10E68000354B1B881A003B681A60324B1A683B688E
:10E690005A60314B1B8818003B685A682F490300A9
:10E6A0005B001B189B00CB1804331A602A4B1B8895
:10E6B00018007B681968294A03005B001B189B003F
:10E6C0009950254B1B8819007B689888234A0B00BA
:10E6D0005B005B189B00D3180833021C1A801E4B8A
:10E6E0001B8819007B68D8881C4A0B005B005B18EC
:10E6F0009B00D3180A33021C1A807B689B881A007F
:10E700007B68DB8853431C00FEF780FF0300E3189F
:10E710005C1EFEF77BFF03001900200006F00AFED6
:10E720000300FB60FEF772FF03001A00FB685A4308
:10E73000084B1B68D218074B1A60074B1B88013324
:10E740009AB2054B1A8000231800BD4604B0B0BD34
:10E750005023002018230020142300203023002001
:10E76000B0B586B000AFF8607A600A23FB180A1CC7
:10E770001A80384B1B680422134001D1082364E03F
:10E78000FB68002B01D10E235FE07B68002B01D1D9
:10E790000E235AE0FB681B68012B09D8FB681A6836
:10E7A0002D4913005B009B189B005B58002B01D187
:10E7B00007234AE01023FB18FA6803CA03C3102397
:10E7C000FB1859680A23FB181888FB681A68224C42
:10E7D00013005B009B189B00E31808331B8843431E
:10E7E000CA181023FB185A601023FB18596810230D
:10E7F000FB181A68184813005B009B189B00C3188D
:10E80000043318681023FB181A68134C13005B00BC
:10E810009B189B00E3180A331B881D001023FB186C
:10E820001A680D4C13005B009B189B00E31808331B
:10E830001B886B43C318994201D3072305E07B680B
:10E840001022BA1803CA03C300231800BD4606B03D
:10E85000B0BDC0465023002030230020B0B586B0A4
:10E8600002AFF860B9601900BB1D1A803B1D0A1C7D
:10E870001A80524B1B680422134001D1082398E0F0
:10E88000BB68002B01D10E2393E0FB68002B01D164
:10E890000E238EE0FB681B68012B09D8FB681A6801
:10E8A000474913005B009B189B005B58002B01D16C
:10E8B00007237EE0FB685968FB681A68404813002C
:10E8C0005B009B189B00C31804331868FB681A6828
:10E8D0003B4C13005B009B189B00E3180A331B881A
:10E8E0001D00FB681A68364C13005B009B189B00E8
:10E8F000E31808331B886B43C318994201D30723DD
:10E9000057E0BB1D1B88002B0DD0FB681A682C49F3
:10E9100013005B009B189B00CB1808331B88BA1DA3
:10E9200012889A4201D9072343E0BB1D1A883B1D78
:10E930001B88D118FB681A68214813005B009B18DC
:10E940009B00C31808331B88994201DD072330E080
:10E95000BB681800FEF780FE03001A000123534035
:10E96000DBB2002B17D13B1D1B881800FEF774FE8D
:10E9700003001A0001235340DBB2002B0BD1FB68CC
:10E980005B681800FEF768FE03001A00012353407D
:10E99000DBB2002B01D010230BE0BB1D1888BA6836
:10E9A000F9683B1D1B88009303000120FFF740F925
:10E9B00003001800BD4604B0B0BDC046502300207F
:10E9C00030230020B0B586B002AFF860B9601900FE
:10E9D000BB1D1A803B1D0A1C1A80524B1B68042267
:10E9E000134001D1082398E0BB68002B01D10E230E
:10E9F00093E0FB68002B01D10E238EE0FB681B68BF
:10EA0000012B09D8FB681A68474913005B009B1863
:10EA10009B005B58002B01D107237EE0FB685968FF
:10EA2000FB681A68404813005B009B189B00C318E2
:10EA300004331868FB681A683B4C13005B009B1892
:10EA40009B00E3180A331B881D00FB681A68364CCC
:10EA500013005B009B189B00E31808331B886B4373
:10EA6000C318994201D3072357E0BB1D1B88002B15
:10EA70000DD0FB681A682C4913005B009B189B00A3
:10EA8000CB1808331B88BA1D12889A4201D9072374
:10EA900043E0BB1D1A883B1D1B88D118FB681A6810
:10EAA000214813005B009B189B00C31808331B8888
:10EAB000994201DD072330E0BB681800FEF7CCFD6A
:10EAC00003001A0001235340DBB2002B17D13B1D7A
:10EAD0001B881800FEF7C0FD03001A0001235340F5
:10EAE000DBB2002B0BD1FB685B681800FEF7B4FDAE
:10EAF00003001A0001235340DBB2002B01D0102386
:10EB00000BE0BB1D1888BA68F9683B1D1B88009391
:10EB100003000420FFF78CF803001800BD4604B082
:10EB2000B0BDC0465023002030230020B0B586B0D1
:10EB300002AFF860B9601900BB1D1A803B1D0A1CAA
:10EB40001A805B4B1B680422134001D10823AAE002
:10EB5000BB68002B01D10E23A5E0FB68002B01D17F
:10EB60000E23A0E0BB681B68012B09D8BB681A689C
:10EB7000504913005B009B189B005B58002B01D190
:10EB8000072390E0BB685968BB681A6849481300BE
:10EB90005B009B189B00C31804331868BB681A6895
:10EBA000444C13005B009B189B00E3180A331B883E
:10EBB0001D00BB681A683F4C13005B009B189B004C
:10EBC000E31808331B886B43C318994201D307230A
:10EBD00069E0BB1D1B88002B0DD0BB681A68354946
:10EBE00013005B009B189B00CB1808331B88BA1DD1
:10EBF00012889A4201D9072355E0BB1D1A883B1D94
:10EC00001B88D118BB681A682A4813005B009B1840
:10EC10009B00C31808331B88994201DD072342E09B
:10EC2000FB681800FEF718FD03001A00012353408B
:10EC3000DBB2002B17D13B1D1B881800FEF70CFD23
:10EC400003001A0001235340DBB2002B0BD1BB6839
:10EC50005B681800FEF700FD03001A000123534013
:10EC6000DBB2002B01D010231DE03B1D1A88BB68CE
:10EC70005B68D3181900BB1D1A88FB68180006F0E2
:10EC800054FCBB681A680B4913005B009B189B007F
:10EC90005C58BB1D1B88FA68B868009313000022FB
:10ECA0000221A04700231800BD4604B0B0BDC046F5
:10ECB0005023002030230020B0B588B002AF786028
:10ECC0000A00BB1C1A80644B1B680422134001D14C
:10ECD0000823BCE07B68002B01D10E23B7E07B68E2
:10ECE0001B68012B09D87B681A685C4913005B001C
:10ECF0009B189B005B58002B01D10723A7E07B6882
:10ED000059687B681A68554813005B009B189B0084
:10ED1000C318043318687B681A68504C13005B00F2
:10ED20009B189B00E3180A331B881D007B681A6838
:10ED30004A4C13005B009B189B00E31808331B88A8
:10ED40006B43C318994201D3072380E07B685B685B
:10ED50001800FEF781FC03001A0001235340DBB2C8
:10ED6000002B01D0102372E07B6859687B681A6819
:10ED70003A4813005B009B189B00C31804331B68C0
:10ED8000C81A7B681A68354913005B009B189B0002
:10ED9000CB1808331B88190006F0C8FA0B1E01D0E7
:10EDA000072354E07B681A682C4913005B009B180A
:10EDB0009B00CB1808331A88BB1C1B881100180055
:10EDC00006F0B4FA0B009BB2002B03D1BB1C1B88CE
:10EDD000002B01D107233AE07B681A681F49130012
:10EDE0005B009B189B00CB1808331B8818007B68BE
:10EDF0001A681A4913005B009B189B00CB180A3352
:10EE00001B8843437B617B685A68BB1C1B88D318F3
:10EE10003B617B681A68114913005B009B189B00DB
:10EE2000CB1804331A687B69D318FB603A69FB6816
:10EE30009A4201D907230AE0BB1C1A88796800238B
:10EE40000093130000220320FEF7F2FE03001800D7
:10EE5000BD4606B0B0BDC046502300203023002080
:10EE600080B582B000AF78600A4B1B680422134063
:10EE700001D108230AE07B68002B01D10E2305E0B5
:10EE8000054B5B781A007B681A6000231800BD46AA
:10EE900002B080BD502300204822002080B500AF82
:10EEA000034AA123DB00D3581800BD4680BDC046ED
:10EEB0000070004080B500AF024B01221A60C046CE
:10EEC000BD4680BD0070004080B582B000AF786064
:10EED0000349044A7B688B50C046BD4602B080BDE2
:10EEE000007000400405000080B582B000AF020051
:10EEF000BB1D1A80BB1D1B88044A94466344002234
:10EF00001A60C046BD4602B080BDC04600700040D9
:10EF100080B582B000AF0200BB1D1A80BB1D1B88EC
:10EF2000054A944663441B685A1E9341DBB218009D
:10EF3000BD4602B080BDC0460070004080B582B0C2
:10EF400000AF78600449C1239B007A68CA50C0466C
:10EF5000BD4602B080BDC0460070004080B582B0A2
:10EF600000AF78600449C2239B007A68CA50C0464B
:10EF7000BD4602B080BDC0460070004080B582B082
:10EF800000AF0200FB1D1A70FB1D1B78044A94465B
:10EF9000634401221A60C046BD4602B080BDC0462F
:10EFA0000070004080B500AF034AA023DB000121C0
:10EFB000D150C046BD4680BD0070004080B500AF56
:10EFC000034AA023DB000021D150C046BD4680BDCE
:10EFD0000070004080B582B000AF78603960124B9D
:10EFE0009B7C002B01D0082319E080235B001800D4
:10EFF000FFF77AFF3B68002B0AD07B68002B01D11A
:10F000000A4B7B607B681B7819000720FDF766FBC5
:10F01000054B3A681A60044B01229A7400231800C9
:10F02000BD4602B080BDC046542300209855020062
:10F0300080B584B000AF78607B6800225A600D4BC9
:10F040005B68002B03D10B4B7A685A600DE0094BCB
:10F050005B68FB6002E0FB685B68FB60FB685B6809
:10F06000002BF8D1FB687A685A60C046BD4604B0F0
:10F0700080BDC0465423002080B500AFFFF71AFFC3
:10F08000C046BD4680BDC04690B583B000AF80236A
:10F090005B001800FFF728FFFFF790FF204BDA68AE
:10F0A0001F4B5B7C5B00D418FFF7F8FE03009BB29C
:10F0B00023801B4B5B7C0133DAB2194B5A74184B1B
:10F0C0005A7C174B1B7C9A4225D2FB1D00221A70DA
:10F0D000134B9B685B68002B04D1114B5A68104B93
:10F0E0009A6007E00E4B9B685A680D4B9A60FB1DB7
:10F0F00001221A700A4B9B681B681800FFF7E4FE98
:10F10000FFF750FFFB1D1B78002B02D00020FFF7FC
:10F1100035FF002300E001231800BD4603B090BD79
:10F120005423002080B582B000AF78600A00BB1C79
:10F130001A80234B9B7C022B01D111233BE0204BF7
:10F1400002229A741E4B5A681D4B9A60BB1C1B8886
:10F15000DAB21B4B1A741A4B00225A74184B7A6895
:10F16000DA60174B9B681B681800FFF7ADFE802321
:10F170005B001800FFF7B8FEFFF714FF104B1B6889
:10F18000002B03D00120FFF7D9FE13E0C0468023F7
:10F190005B001800FFF7BCFE03001A000123534078
:10F1A000DBB2002BF3D1FFF76FFF031EEED0044B51
:10F1B00001229A7400231800BD4602B080BDC046EB
:10F1C0005423002080B586B000AF214BDB68002BB4
:10F1D0001ED180235B001800FFF786FE0120FFF799
:10F1E000BDFEFFF7EBFE0C23FB1801221A70FFF7A0
:10F1F00055FE03009AB20C23FB189A80144B01228F
:10F200009A74134B1B680C22BA18100098471AE026
:10F21000FFF73AFF031E16D00120FFF79FFE3B00C9
:10F2200000221A700A4BDA683B005A60084B1B7CBC
:10F230009AB23B001A81064B01229A74044B1B6858
:10F240003A0010009847C046BD4606B080BDC04693
:10F250005423002080B584B000AF786039607B68AB
:10F26000032B16D8A023DA05A223DB00D358DB43F7
:10F27000FB600C4B7A689200D35801229A4013002D
:10F280001A00FB6813405A1E9341DAB23B681A70A9
:10F2900002E03B6800221A7000231800BD4604B04B
:10F2A00080BDC046A855020080B586B000AF020000
:10F2B000FB1D1A70BB1D0A1C1A701723FB180022B5
:10F2C0001A7000233B6102E03B6901333B613B69FB
:10F2D000032B07D8444B3A699200D258FB1D1B7888
:10F2E0009A42F1D13B69032B69D8BB1D1B78012BD6
:10F2F00004D0022B56D0002B36D060E01723F9182B
:10F300003A483A6913005B009B181B5C0B70374945
:10F310003A6913005B009B18CB1801331B78002B54
:10F3200014D03348334B1A6813009B009B185B00C2
:10F330001900314B1A00FDF7BFF80300FB60FB68B2
:10F34000002B03D12C4BFA1D12781A7027493A6909
:10F3500013005B009B18CB1802331978274A3B69CE
:10F36000D3180A1C1A702AE0214B1800FDF7DEF8AA
:10F37000224A3B69D31819781C483A6913005B008C
:10F380009B18C31802331B78994217D11723F91819
:10F3900016483A6913005B009B18C31802331B78A8
:10F3A0000B700BE01723F91810483A6913005B0043
:10F3B0009B18C31801331B780B7000E0C04617235D
:10F3C000FB181B78002B0AD00D4B1B68002B06D0B6
:10F3D0000B4B1B681722BA18127810009847C046CA
:10F3E000BD4606B080BDC046A8550200BC23002023
:10F3F000C82300206C230020E8230020EC230020F9
:10F40000B823002080B582B000AF78607B681B789D
:10F4100002211800FFF748FFC046BD4602B080BD7C
:10F4200090B589B000AF0200FB1D1A700023FB618C
:10F430000023BB61FB1D1B78172B00D958E39A00F2
:10F44000E24BD3181B689F46A023DA05E04B1B68EC
:10F45000D943F0235B041940A123DB00D150A02342
:10F46000DB05DC4A00219950DB4BFA1D12781A703B
:10F470003FE3A023DA05D64B1B68D943E0235B04A6
:10F480001940A123DB00D150A023DB05D14A002184
:10F490009950A023DB05D14A9B58F02252045A40D0
:10F4A00080239B03134016D0A023DA05A123DB00A1
:10F4B00080218903D150A023DB05C64A0021995041
:10F4C000FB1D1B78022B02D1E123DB0001E0FA23B4
:10F4D0001B01BB6114E0A023DB05BE49802292031F
:10F4E0005A50A023DA05A123DB000021D150FB1DD7
:10F4F0001B78022B01D1C82301E0C8235B00BB614C
:10F50000B54BFA1D12781A70B54CBB69642118000E
:10F5100005F086FE03001A00B24B1B68534300221D
:10F5200019002000FCF7C8FF0300FB61E1E2A02303
:10F53000DA05A74B1B68D943E0235B041940A123DC
:10F54000DB00D150A023DB05A24A00219950A02363
:10F55000DB05A24A9B58F02252045A4080239B03A9
:10F56000134016D0A023DA05A123DB0080218903F4
:10F57000D150A023DB05974A00219950FB1D1B7831
:10F58000032B02D1C8239B0001E0FA231B01BB61BE
:10F5900014E0A023DB058F49802292035A50A02358
:10F5A000DA05A123DB000021D150FB1D1B78032BC2
:10F5B00001D1C82301E0C8235B00BB61864BFA1D63
:10F5C00012781A70864CBB696421180005F028FE79
:10F5D00003001A00834B1B685343002219002000CC
:10F5E000FCF76AFF0300FB6183E2A023DA05784B96
:10F5F0001B68D943E0235B041940A123DB00D150F1
:10F60000A023DB05734A00219950A023DB05734A30
:10F610009B58F02252045A4080239B0313400FD082
:10F62000A023DA05A123DB0080218903D150A02388
:10F63000DB05684A00219950FA231B01BB610EE0EB
:10F64000A023DB056349802292035A50A023DA05E8
:10F65000A123DB000021D150C8235B00BB615E4BBE
:10F66000FA1D12781A705E4CBB696421180005F00F
:10F67000D7FD03001A005B4B1B685343002219009F
:10F680002000FCF719FF0300FB6132E2A023DA053A
:10F690004F4B1B68D943E0235B041940A123DB00D7
:10F6A000D150A023DB054B4A00219950A023DB0554
:10F6B0004A4A9B58F02252045A4080239B0313402D
:10F6C00015D0A023DA05A123DB0080218903D150C6
:10F6D000A023DB053F4A00219950FB1D1B78052B19
:10F6E00001D1C82301E0FA231B01BB6114E0A02370
:10F6F000DB053849802292035A50A023DA05A12362
:10F70000DB000021D150FB1D1B78052B01D1C82344
:10F7100001E0C8235B00BB612F4BFA1D12781A7001
:10F720002F4CBB696421180005F07AFD03001A0014
:10F730002C4B1B685343002219002000FCF7BCFE31
:10F740000300FB61D5E1A023DA05214B1B68D943F7
:10F75000E0235B041940A123DB00D150A023DB058B
:10F760001C4A00219950A023DB051C4A9B58F0221B
:10F7700052045A4080239B0313400CD0A023DA0587
:10F78000A123DB0080218903D150A023DB05114A8E
:10F79000002199500BE0A023DB050E498022920343
:10F7A0005A50A023DA05A123DB000021D1500A4BD7
:10F7B000FA1D12781A700A480A4B1B6800221900B9
:10F7C000FCF77AFE0300FB6193E1C046D8550200C6
:10F7D000742300200C0500006823002004050000AD
:10F7E000782300206C230020A023DA05C34B1B687C
:10F7F000D943E0235B041940A123DB00D150A023AF
:10F80000DB05BF4A00219950A023DB05BC498022BB
:10F8100092035A50A023DA05A123DB000021D15026
:10F82000B84BFA1D12781A7063E1A023DB05B64AC3
:10F830009B587B61A023DA057B69D9438023DB03D6
:10F840001940A123DB00D150A023DB057969802278
:10F85000D2030A40AA495A50AC48AD4B1B6800225B
:10F860001900FCF729FE0300FB6142E1A023DB0540
:10F87000A54A9B583B61A023DA053B69D943802305
:10F88000DB031940A123DB00D150A023DB0539693C
:10F890008022D2030A409A495A509C489C4B1A68CD
:10F8A00013009B009B1800221900FCF705FE0300C3
:10F8B000FB611EE1A023DB05934A9B58FB60A0235C
:10F8C000DA05FB68D9438023DB031940A123DB0061
:10F8D000D150A023DB05F9688022D2030A40884971
:10F8E0005A508A488A4B1B6800221900FCF7E4FD35
:10F8F0000300FB61FDE0A023DB05834A9B58BB604E
:10F90000A023DA05BB68D9438023DB031940A12378
:10F91000DB00D150A023DB05B9688022D2030A4066
:10F9200077495A5079487A4B1A6813009B009B1804
:10F9300000221900FCF7C0FD0300FB61D9E0A02301
:10F94000DB056F49F02252045A50A023DA05A123A7
:10F95000DB000021D1506B4BFA1D12781A70C8E001
:10F960006C4B1800FCF7E2FD0300FB61FB1D1B78EC
:10F970001122D31ABB61BB69002B2DD0FB69002B70
:10F980002AD15E4B802212041A60BB69012B13D965
:10F99000604CBB69C82253436421180005F040FC49
:10F9A00003001A005A4B1B68534300221900200021
:10F9B000FCF782FD0300FB61A023DA054F4B1968B9
:10F9C000F0235B040B404E495350A023DA05A123DA
:10F9D000DB000021D1508CE0A023DA05474B1968E9
:10F9E000F0235B041940A123DB00D150A023DB05E9
:10F9F000434A00219950414B00221A6079E0A0232C
:10FA0000DA05A123DB00F0214904D150A023DB0556
:10FA10003B4A002199503B4BFA1D12781A7068E05E
:10FA2000A023DA05A123DB00E0214904D150A02363
:10FA3000DB05334A00219950A023DB0530498022A1
:10FA400092035A50A023DA05A123DB000021D150F4
:10FA50002C4BFA1D12781A704BE0A023DA05A12373
:10FA6000DB00D0214904D150A023DB05244A00212A
:10FA70009950A023DB0522498022D2035A50A023AB
:10FA8000DA05A123DB000021D1501E4BFA1D1278AC
:10FA90001A702EE0A023DA05A123DB00C02149045F
:10FAA000D150A023DB05164A00219950A023DB0585
:10FAB0001349C022D2035A50A023DA05A123DB0048
:10FAC0000021D1500F4BFA1D12781A7011E0A023BB
:10FAD000DB050B49F02252045A50A023DA05A1237A
:10FAE000DB000021D150074BFA1D12781A7000E09C
:10FAF000C046FB691800BD4609B090BD74230020C4
:10FB00000C05000068230020040500007823002075
:10FB10006C2300209823002080B582B000AF78606D
:10FB2000064B1B680122134004D0054B1B781800BC
:10FB3000FFF776FCC046BD4602B080BD70230020B2
:10FB40006823002080B584B000AF7860A023DB0577
:10FB50000C4A9B58FB60A023DA05FB68D94380233D
:10FB60001B041940A123DB00D150A023DB05F96859
:10FB7000802212040A4004495A50C046BD4604B0CF
:10FB800080BDC046040500000C05000080B584B0AF
:10FB900000AF0200FB1D1A700023FB60084B1B68BE
:10FBA0000122134006D0FB1D1B781800FFF738FC1C
:10FBB0000300FB60FB681800BD4604B080BDC04672
:10FBC0007023002080B586B000AFF860B9607A601D
:10FBD00000237B61384BBA681A60384BFA681A60A8
:10FBE000374B7A681A60FB680222134031D0002339
:10FBF0003B610AE03B6901220121180000F072F824
:10FC000003007B613B6901333B613B69032B02D8F5
:10FC10007B69002BEED07B69002B08D1BB685A08AA
:10FC2000284B04211800FBF7EBFB03007B617B6989
:10FC3000002B03D1FBF766FC03007B617B69002B83
:10FC400007D1214A214B00211800FCF7E5FB0300F6
:10FC50007B61FB680122134012D0A023DA05A123A7
:10FC6000DB00F0214904D150A023DB05184A002114
:10FC70009950A023DA05A323DB00F0214904D150D9
:10FC80007B69002B07D1134A134B00211800FCF7A6
:10FC9000C3FB03007B617B69002B07D10F4A104B2C
:10FCA00001211800FCF7B8FB03007B617B69180099
:10FCB000BD4606B080BDC0466C23002070230020E6
:10FCC000B8230020B855020005F40100A455020035
:10FCD0000C05000019FB01009C55020045FB0100CA
:10FCE000A055020080B584B000AF78600800110014
:10FCF000FB1C021C1A70BB1C0A1C1A700023FB6040
:10FD00007B68032B3BD8BB1C1B78012B0BD1FB1C46
:10FD10001B78012B04D17B68DBB20D33DAB200E033
:10FD20000022BB1C1A70FB1C1B78012B04D0022B79
:10FD30000BD0002B14D01EE014497A6813005B002E
:10FD40009B18BA1C12785A541BE010497A681300A9
:10FD50005B009B18CB180133BA1C12781A7010E0A4
:10FD60000A497A6813005B009B18CB180233BA1C4F
:10FD700012781A7005E00723FB60C04601E00723F4
:10FD8000FB60FB681800BD4604B080BDBC230020AA
:10FD900080B586B000AF786000237B612DE0A023A2
:10FDA000DB051A4A796989008A58C132FF3292000C
:10FDB000D3583B6101227B699A4013001A007B688B
:10FDC000134001D0032300E00023FB603B69104A8D
:10FDD00013403B61FB681B043A6913433B61A0235A
:10FDE000DB050A4A796989008A58C132FF329200DC
:10FDF0003969D1507B6901337B617B69032BCED993
:10FE000000231800BD4606B080BDC046A8550200BC
:10FE1000FFFFFCFF80B582B000AF0122002100206F
:10FE2000FFF760FF03007B607B68002B04D07B68DA
:10FE3000072B01D07B681EE0072202210120FFF77B
:10FE400051FF03007B607B68002B04D07B68072B8D
:10FE500001D07B680FE0042202210020FFF742FF5F
:10FE600003007B607B68002B04D07B68072B01D0EC
:10FE70007B6800E000231800BD4602B080BDC0468C
:10FE800080B582B000AF012202210020FFF72AFFD7
:10FE900003007B607B68002B04D07B68072B01D0BC
:10FEA0007B681EE0072202210120FFF71BFF0300F1
:10FEB0007B607B68002B04D07B68072B01D07B68BC
:10FEC0000FE00A2200210020FFF70CFF03007B60F7
:10FED0007B68002B04D07B68072B01D07B6800E097
:10FEE00000231800BD4602B080BDC04680B584B076
:10FEF00000AF78600B23FB1819000020FFF7AAF968
:10FF00000300FB60FB68002B01D0FB6822E00A23A2
:10FF1000FB1819000120FFF79DF90300FB60FB6847
:10FF2000002B01D0FB6815E00A23FB181B78002B7F
:10FF300003D07B6802221A700BE00B23FB181B789E
:10FF4000002B03D07B680B221A7002E07B68002232
:10FF50001A7000231800BD4604B080BD80B582B081
:10FF600000AF0320FFF714FF03007B607B68002BCA
:10FF700004D07B68062B01D07B6800E000231800CA
:10FF8000BD4602B080BDC04680B584B000AF786089
:10FF90007B681B88102B02D0112B1AD033E01C4B2E
:10FFA0001B68002B0FD1FFF735FF0300FB60FB68D8
:10FFB000002B08D0174B1B68002B04D0154B1B6877
:10FFC000FA6810009847124B1B685A1C104B1A60B5
:10FFD00019E00F4B1B685A1E0D4B1A600C4B1B6827
:10FFE000002B0FD1FFF74CFF0300FB60FB68002BD9
:10FFF00008D0084B1B68002B04D0064B1B68FA681E
:020000022000DC
:1000000010009847C046C046BD4604B080BDC046FB
:10001000F4230020F023002080B584B000AF786086
:1000200039600023FB600F4B7A681A603B68002B35
:100030000AD03B681800FFF759FF0300FB60FB681C
:10004000002B01D0FB6808E0074B1B68002B03D195
:10005000FFF716FF0300FB60FB681800BD4604B005
:1000600080BDC046F0230020F42300203CDF704711
:10007000C046180048DF7047C046180076DF70475A
:10008000C04618007ADF7047C04618007CDF704712
:10009000C046180080B586B000AF78607B681B78DA
:1000A000002B5ED17B685A681623FB1812881A80D1
:1000B0007B685A681423FB1852881A807B685A6838
:1000C0001223FB1892881A807B685A681023FB1849
:1000D000D2881A807B685B6804211800FFF722F839
:1000E0000300FB60FB68BB60BB68002B03D0BB68F0
:1000F0001800FBF729FA1623FB181B88DAB21B4BF2
:100100001100180001F0F4F81423FB181B88DAB270
:10011000164B1100180001F027F91223FB181B8859
:10012000DAB2124B1100180001F05AF91023FB1833
:100130001B88DAB20D4B1100180001F08DF9FB6835
:10014000002B0ED0FB68082B0BD0FB68084A9342AB
:1001500007D0FB68074A934203D0FB681800FBF7FF
:10016000F3F9C046BD4606B080BDC0463029002028
:10017000043000000134000080B584B000AF2A4B89
:1001800019000020FEF726FF0300FB60FB68BB6040
:10019000BB68002B03D0BB681800FBF7D5F9234BD5
:1001A0001A7860218A43111C40220A431A70204B9E
:1001B0001A7860218A43111C40220A431A701D4B91
:1001C0001A7860218A43111C40220A431A701A4B84
:1001D0001A7860218A43111C40220A431A70134B7B
:1001E0001800FEF725FF124B1800FEF721FF114BF8
:1001F0001800FEF71DFF104B1800FEF719FF0F4BFC
:1002000004211800FEF78EFF0300FB60FB687B6093
:100210007B68002B03D07B681800FBF795F9C0467C
:10022000BD4604B080BDC04695000200E820002015
:10023000F0200020F8200020002100201C240020B5
:1002400080B582B000AF7860FEF716FFC046BD46AD
:1002500002B080BD80B584B000AF134A00230521F1
:100260000020FCF755F80300FB60FB68BB60BB682F
:10027000002B03D0BB681800FBF766F90B4A0C4B48
:1002800001211800FCF7C8F803007B607B683B6025
:100290003B68002B03D03B681800FBF755F9C046BC
:1002A000BD4604B080BDC0462424002041020200A7
:1002B0003856020080B586B000AF3B001A780F2197
:1002C0008A43111C01220A431A703B001A780F213D
:1002D0000A40111C10220A431A701E4B180005F028
:1002E0002DF903009AB21B493B001800FFF7CEFE20
:1002F00003007B617B693B613B69002B03D03B6959
:100300001800FBF721F93B1D082200211800FAF71D
:10031000A9FF3B1D50221A803B1DA0225A803B1D85
:1003200000229A803B1DC8225200DA803B1D180033
:10033000FFF7A8FE03007B617B69FB60FB68002B75
:1003400003D0FB681800FBF7FFF8C046BD4606B0B7
:1003500080BDC0463C56020080B500AF034B18007C
:1003600000F072FFC046BD4680BDC0463029002067
:1003700080B584B000AF78607B681B78002B10D10B
:100380000A4B1B883B211800FFF778FE0300FB6037
:10039000FB68BB60BB68002B03D0BB681800FBF791
:1003A000D3F8C046BD4604B080BDC046E020002062
:1003B00080B582B000AF78607B681800FBF7C4F8A6
:1003C000C046BD4602B080BD80B58AB000AF3B1DBF
:1003D0001C2200211800FAF745FF3B1D00221A607D
:1003E0003B1DA02292025A603B1DF02212039A602C
:1003F0003B1D03221A733B1D0022DA813B1D0022A4
:100400001A743B1D0B4A5A613B1D0B4A9A613B1DF6
:10041000180002F015FD03007B627B6A3B623B6AB9
:10042000002B03D03B6A1800FBF78EF8C046BD4690
:100430000AB080BD71030200B103020080B582B032
:1004400000AF0A4B0A4900221800FCF735F80300F8
:100450007B607B683B603B68002B03D03B681800E7
:10046000FBF772F8C046BD4602B080BDFC230020F9
:100470009A19000080B584B000AF0020FFF786FB1A
:100480000300FB60FB68BB60BB68002B03D0BB684C
:100490001800FBF759F8FFF761FD0300FB60FB68EC
:1004A0007B607B68002B03D07B681800FBF74CF85F
:1004B000FFF7DCFD0300FB60FB683B603B68002B43
:1004C00003D03B681800FBF73FF8C046BD4604B0B8
:1004D00080BDC04680B584B000AF0200FB1D1A701D
:1004E000FB1D1B78002B11D0032B00D012E0022043
:1004F000FFF74CFB0300FB60FB68BB60BB68002B95
:1005000007D0BB681800FBF71FF802E0FFF7B2FF47
:1005100000E0C046C046BD4604B080BD80B584B092
:1005200000AF78607B681B88102B02D0112B13D092
:1005300017E00720FFF72AFB0300FB60FB68BB60A6
:10054000BB68002B03D0BB681800FAF7FDFF7B687F
:100550009A88064B1A8004E0044B012252421A800A
:10056000C046C046BD4604B080BDC046E020002065
:1005700080B582B000AF78607B68180003F050FE51
:100580007B68180002F09EFD7B681800FFF7FCFCFA
:100590007B681800FFF7C2FF7B68180002F06AFA58
:1005A0007A68044B1100180000F048FAC046BD46B6
:1005B00002B080BD3029002080B582B000AF7860E5
:1005C0007B681800FDF72CFE7B68180002F0FEFA2D
:1005D000C046BD4602B080BD80B590B000AF1823C4
:1005E000FA18384B1000190004231A0004F09DFF7C
:1005F00035491823F8180023482204F003FD0300AE
:10060000FB63FB6BBB63BB6B002B03D0BB6B1800A6
:10061000FAF79AFF3B1D1A000121002004F07EFD2D
:1006200003007B637B6B3B633B6B002B03D03B6B1B
:100630001800FAF789FF254BFB62FB6A180004F0EB
:100640009DFD03007B637B6BBB62BB6A002B03D009
:10065000BB6A1800FAF778FF3B1D1A7B01210A4399
:100660001A733B1D180004F09DFD03007B637B6B38
:100670007B627B6A002B03D07B6A1800FAF764FF69
:10068000134B180004F004FD03007B637B6B3B629B
:100690003B6A002B03D03B6A1800FAF755FF0D4B5D
:1006A000180004F009FD03007B637B6BFB61FB69B1
:1006B000002B03D0FB691800FAF746FFC046BD4681
:1006C00010B080BD48560200EC250020E81F002035
:1006D00071050200B905020080B586B000AF0200C6
:1006E000FB1D1A70FB1D1B78072B1CD00A2B02D098
:1006F000042B03D02BE0FFF7BDFE28E0164B1B8830
:1007000013211800FFF7BAFC03007B617B69082BFB
:100710001AD07B693B613B69002B15D03B691800FF
:10072000FAF712FF10E002F083FA03007B617B69A5
:10073000082B0BD07B69FB60FB68002B06D0FB68A5
:100740001800FAF701FF01E0C04600E0C046C046CD
:10075000BD4606B080BDC046E020002080B586B012
:1007600000AFF860B9607A607B687B617B69002BC1
:1007700003D07B691800FAF7E7FE00231800BD4696
:1007800006B080BD80B58AB000AF0200FB1D1A70B4
:100790001423FB18FA1D12781A70FDF7BDFE030032
:1007A0007B627B6A3B623B6A002B03D03B6A18008A
:1007B000FAF7CAFE1423FB18180003F0C1FB03006C
:1007C0007B627B6AFB61FB69002B03D0FB6918002D
:1007D000FAF7BAFE0823FB1805330522002118009A
:1007E000FAF740FD0823FB185A7901210A435A7190
:1007F0000823FB185A7902218A435A710823FB18EF
:100800005A7970218A43111C30220A435A710823F5
:10081000FB185A797F210A405A710823FB180722D6
:100820009A710823FB181022DA710823FB180E4A6C
:100830001A600823FB1801221A710823FA180B4BBF
:100840001100180003F02CFC03007B627B6ABB6183
:10085000BB69002B03D0BB691800FAF775FEC046D0
:10086000BD460AB080BDC0465D070200F8230020E7
:1008700090B5ABB002AF6023FB18382200211800FE
:10088000FAF7F0FC6023FB1802221A706023FB18B1
:100890000622DA703C23FB18180024231A000021DA
:1008A000FAF7E0FC3C23FB1801221A733C23FB18E7
:1008B000962252001A613C23FB18B4225A613B1D58
:1008C000382200211800FAF7CDFC3B1D01221A82C4
:1008D0003B1D134A5A61134C3C23FA18391D6023FF
:1008E000F81800230093230001F0E4FD03009C228C
:1008F000BA1813609C23FB181B689822BA1813605F
:100900009823FB181B68002B05D09823FB181B6845
:100910001800FAF719FEC046BD4629B090BDC04682
:10092000E4200020D504020080B586B000AF7860D6
:10093000174B18491A000320FFF744F903007B61A5
:100940007B693B613B69002B03D03B691800FAF7D8
:10095000FBFD0B23FB1819000020FFF75DFB0300D4
:100960007B617B69FB60FB68002B03D0FB68180090
:10097000FAF7EAFD0B23FB181B78023B5A4253415E
:10098000DAB27B681A70C046BD4606B080BDC0466C
:10099000D9060200CD0C000080B582B000AFFFF791
:1009A00069FB03007B607B683B603B68002B03D0E6
:1009B0003B681800FAF7C8FDC046BD4602B080BDCE
:1009C00080B584B000AFFFF745FCFB1D1800FFF7B2
:1009D000ABFFFFF701FEFFF7CFFBFB1D1B781800F5
:1009E000FFF7D0FEFFF766FCFFF7B6FCFFF740FF0E
:1009F000FFF7EAFCFFF722FD032001F087FE03006A
:100A0000FB60FB68BB60BB68002B03D0BB681800B1
:100A1000FAF79AFDFFF7C0FFFCE7C046A0DF70477A
:100A2000C0461800A2DF7047C0461800A6DF704716
:100A3000C046180063DF7047C046180080B582B01A
:100A400000AF786039603B681B88102B02D0112BF7
:100A500005D009E03B689A887B681A8004E07B68CF
:100A6000012252421A80C046C046BD4602B080BD37
:100A700090B59DB000AF78605023FA18774B100006
:100A8000190010231A0004F050FD6023FB18744A6B
:100A90001A806023FB189A1C5023FB1811001800C1
:100AA000FFF7C8FF0300FB66FB6EBB66BB6E002B47
:100AB00003D0BB6E1800FAF747FD3423FB181C2245
:100AC00000211800FAF7CEFB3423FB181A78022114
